:040000005FEF7FF03F
:10FEBE00000EF86E0001BEEF7FF0600ED36E040EE2
:10FECE00D26E000E9B6E12007C0EBB6E000EBC6ED0
:10FEDE009E92060EBA6E12009FEC7FF064EC7FF0DD
:10FEEE007CEC7FF06BEC7FF012001C0E0F01576F55
:10FEFE000C0E586F000E596FFC0E4817120001C001
:10FF0E0003F002C004F0D89004320332D8900432C9
:10FF1E00033203500F01586F01C003F0030E031696
:10FF2E00033AF00E03165751CF0B0310576F120002
:10FF3E00000E8D6E000E8C6E000E896E000E8A6E97
:10FF4E00000E8B6E070E966E926893689468FD0E87
:10FF5E00956E0F013B69FC0E3A6F3F0E396F070E1F
:10FF6E003C6F2F0E386F000E616EF18E120073EC27
:10FF7E007FF07CEC7FF029D0000E026E630E016ED6
:10FF8E0086EC7FF022D0000E026EC70E016E86EC5C
:10FF9E007FF01BD0010E026E2B0E016E86EC7FF0F1
:10FFAE0014D0010E026E8F0E016E86EC7FF00DD016
:10FFBE00010E026EF30E016E86EC7FF006D0000E7F
:10FFCE00026E000E016E86EC7FF00550000AD8B46A
:10FFDE00F6D7010AD8B4D0D7030AD8B4D4D7010AB9
:10FFEE00D8B4D8D7070AD8B4DCD7010AD8B4E0D72A
:02FFFE00ECD73E
:020000040020DA
:08000000FFFFFFFFFFFFFFFF00
:020000040030CA
:0E000000FF281F3CFFBD85FF0FC00FE00F4023
:00000001FF
